{
  "contractName": "AvatarContract",
  "abi": [
    {
      "constant": true,
      "inputs": [
        {
          "name": "",
          "type": "address"
        }
      ],
      "name": "avatar_id_of",
      "outputs": [
        {
          "name": "",
          "type": "uint256"
        }
      ],
      "payable": false,
      "stateMutability": "view",
      "type": "function"
    },
    {
      "constant": true,
      "inputs": [
        {
          "name": "",
          "type": "uint256"
        }
      ],
      "name": "avatars",
      "outputs": [
        {
          "name": "name",
          "type": "string"
        },
        {
          "name": "health",
          "type": "uint256"
        },
        {
          "name": "avatar_dna",
          "type": "uint256"
        },
        {
          "name": "number_of_habits",
          "type": "uint256"
        },
        {
          "name": "amount_locked",
          "type": "uint256"
        }
      ],
      "payable": false,
      "stateMutability": "view",
      "type": "function"
    },
    {
      "constant": false,
      "inputs": [
        {
          "name": "_name",
          "type": "string"
        }
      ],
      "name": "createAvatar",
      "outputs": [],
      "payable": false,
      "stateMutability": "nonpayable",
      "type": "function"
    },
    {
      "constant": true,
      "inputs": [],
      "name": "getAvatar",
      "outputs": [
        {
          "name": "",
          "type": "string"
        }
      ],
      "payable": false,
      "stateMutability": "view",
      "type": "function"
    }
  ],
  "bytecode": "0x608060405234801561001057600080fd5b5061071e806100206000396000f300608060405260043610610062576000357c0100000000000000000000000000000000000000000000000000000000900463ffffffff16806346fd1fd01461006757806374c0488b146100a2578063834d5fac146100f9578063aa8b20f6146101bb575b600080fd5b34801561007357600080fd5b506100a060048036038101908080359060200190820180359060200191909192939192939050505061024b565b005b3480156100ae57600080fd5b506100e3600480360381019080803573ffffffffffffffffffffffffffffffffffffffff16906020019092919050505061037d565b6040518082815260200191505060405180910390f35b34801561010557600080fd5b5061012460048036038101908080359060200190929190505050610395565b6040518080602001868152602001858152602001848152602001838152602001828103825287818151815260200191508051906020019080838360005b8381101561017c578082015181840152602081019050610161565b50505050905090810190601f1680156101a95780820380516001836020036101000a031916815260200191505b50965050505050505060405180910390f35b3480156101c757600080fd5b506101d0610472565b6040518080602001828103825283818151815260200191508051906020019080838360005b838110156102105780820151818401526020810190506101f5565b50505050905090810190601f16801561023d5780820380516001836020036101000a031916815260200191505b509250505060405180910390f35b60008033915061025a82610571565b9050600080549050600160008473ffffffffffffffffffffffffffffffffffffffff1673ffffffffffffffffffffffffffffffffffffffff16815260200190815260200160002081905550600060a06040519081016040528086868080601f01602080910402602001604051908101604052809392919081815260200183838082843782019150505050505081526020016064815260200183815260200160008152602001600081525090806001815401808255809150509060018203906000526020600020906006020160009091929091909150600082015181600001908051906020019061034b92919061064d565b506020820151816001015560408201518160020155606082015181600301556080820151816004015550505050505050565b60016020528060005260406000206000915090505481565b6000818154811015156103a457fe5b9060005260206000209060060201600091509050806000018054600181600116156101000203166002900480601f0160208091040260200160405190810160405280929190818152602001828054600181600116156101000203166002900480156104505780601f1061042557610100808354040283529160200191610450565b820191906000526020600020905b81548152906001019060200180831161043357829003601f168201915b5050505050908060010154908060020154908060030154908060040154905085565b60606000600160003373ffffffffffffffffffffffffffffffffffffffff1673ffffffffffffffffffffffffffffffffffffffff168152602001908152602001600020548154811015156104c257fe5b90600052602060002090600602016000018054600181600116156101000203166002900480601f0160208091040260200160405190810160405280929190818152602001828054600181600116156101000203166002900480156105675780601f1061053c57610100808354040283529160200191610567565b820191906000526020600020905b81548152906001019060200180831161054a57829003601f168201915b5050505050905090565b6000662386f26fc1000082604051602001808273ffffffffffffffffffffffffffffffffffffffff1673ffffffffffffffffffffffffffffffffffffffff166c010000000000000000000000000281526014019150506040516020818303038152906040526040518082805190602001908083835b60208310151561060b57805182526020820191506020810190506020830392506105e6565b6001836020036101000a03801982511681845116808217855250505050505090500191505060405180910390206001900481151561064557fe5b069050919050565b828054600181600116156101000203166002900490600052602060002090601f016020900481019282601f1061068e57805160ff19168380011785556106bc565b828001600101855582156106bc579182015b828111156106bb5782518255916020019190600101906106a0565b5b5090506106c991906106cd565b5090565b6106ef91905b808211156106eb5760008160009055506001016106d3565b5090565b905600a165627a7a72305820eabba94eba8a6f46593eefee730303d608197560947ee08e9b657a7f26a313130029",
  "source": "pragma solidity ^0.4.24;\n\n\ncontract AvatarContract {\n\n    struct Habit {\n        string title;\n        string description;\n        uint periodicity;\n        uint totalSessions;\n        uint sessionsCompleted;\n    }\n\n    struct Avatar {\n        string name;\n        uint health;\n        uint avatar_dna;\n        uint number_of_habits;\n        uint amount_locked;\n        mapping (uint => Habit) Habits;\n    }\n\n    Avatar[] public avatars;\n    mapping (address => uint) public avatar_id_of;\n\n    function generateUniqueId(address _address) internal pure returns(uint) {\n        return uint(keccak256(abi.encodePacked(_address)))%10**16;\n    }\n\n    function createAvatar(string _name) external {\n        address caller = msg.sender;\n        uint dna = generateUniqueId(caller);\n        avatar_id_of[caller] = avatars.length;\n        avatars.push(Avatar(_name, 100, dna, 0, 0));\n    }\n\n    function getAvatar() external view returns(string) {\n        return avatars[avatar_id_of[msg.sender]].name;\n    }\n    \n    \n}",
  "sourcePath": "/Users/miraj/Desktop/habit-marauders/contracts/AvatarContract.sol",
  "compiler": {
    "name": "solc",
    "version": "0.4.24+commit.e67f0147.Emscripten.clang"
  },
  "schemaVersion": "2.0.1",
  "updatedAt": "2018-07-29T08:15:11.638Z"
}