{
  "contractName": "AvatarContract",
  "abi": [
    {
      "constant": true,
      "inputs": [
        {
          "name": "",
          "type": "address"
        }
      ],
      "name": "avatarIdOf",
      "outputs": [
        {
          "name": "",
          "type": "uint256"
        }
      ],
      "payable": false,
      "stateMutability": "view",
      "type": "function"
    },
    {
      "constant": true,
      "inputs": [
        {
          "name": "",
          "type": "uint256"
        }
      ],
      "name": "avatars",
      "outputs": [
        {
          "name": "name",
          "type": "string"
        },
        {
          "name": "health",
          "type": "uint8"
        },
        {
          "name": "avatarDna",
          "type": "uint256"
        },
        {
          "name": "numberOfHabits",
          "type": "uint256"
        },
        {
          "name": "amountLocked",
          "type": "uint256"
        }
      ],
      "payable": false,
      "stateMutability": "view",
      "type": "function"
    },
    {
      "constant": false,
      "inputs": [
        {
          "name": "_name",
          "type": "string"
        }
      ],
      "name": "createAvatar",
      "outputs": [],
      "payable": false,
      "stateMutability": "nonpayable",
      "type": "function"
    }
  ],
  "bytecode": "0x608060405234801561001057600080fd5b506105b1806100206000396000f300608060405260043610610057576000357c0100000000000000000000000000000000000000000000000000000000900463ffffffff16806346fd1fd01461005c5780637ffdfe2f14610097578063834d5fac146100ee575b600080fd5b34801561006857600080fd5b506100956004803603810190808035906020019082018035906020019190919293919293905050506101b6565b005b3480156100a357600080fd5b506100d8600480360381019080803573ffffffffffffffffffffffffffffffffffffffff169060200190929190505050610302565b6040518082815260200191505060405180910390f35b3480156100fa57600080fd5b506101196004803603810190808035906020019092919050505061031a565b60405180806020018660ff1660ff168152602001858152602001848152602001838152602001828103825287818151815260200191508051906020019080838360005b8381101561017757808201518184015260208101905061015c565b50505050905090810190601f1680156101a45780820380516001836020036101000a031916815260200191505b50965050505050505060405180910390f35b6000803391506101c582610404565b9050600080549050600160008473ffffffffffffffffffffffffffffffffffffffff1673ffffffffffffffffffffffffffffffffffffffff16815260200190815260200160002081905550600060a06040519081016040528086868080601f0160208091040260200160405190810160405280939291908181526020018383808284378201915050505050508152602001606460ff1681526020018381526020016000815260200160008152509080600181540180825580915050906001820390600052602060002090600602016000909192909190915060008201518160000190805190602001906102b99291906104e0565b5060208201518160010160006101000a81548160ff021916908360ff16021790555060408201518160020155606082015181600301556080820151816004015550505050505050565b60016020528060005260406000206000915090505481565b60008181548110151561032957fe5b9060005260206000209060060201600091509050806000018054600181600116156101000203166002900480601f0160208091040260200160405190810160405280929190818152602001828054600181600116156101000203166002900480156103d55780601f106103aa576101008083540402835291602001916103d5565b820191906000526020600020905b8154815290600101906020018083116103b857829003601f168201915b5050505050908060010160009054906101000a900460ff16908060020154908060030154908060040154905085565b6000662386f26fc1000082604051602001808273ffffffffffffffffffffffffffffffffffffffff1673ffffffffffffffffffffffffffffffffffffffff166c010000000000000000000000000281526014019150506040516020818303038152906040526040518082805190602001908083835b60208310151561049e5780518252602082019150602081019050602083039250610479565b6001836020036101000a0380198251168184511680821785525050505050509050019150506040518091039020600190048115156104d857fe5b069050919050565b828054600181600116156101000203166002900490600052602060002090601f016020900481019282601f1061052157805160ff191683800117855561054f565b8280016001018555821561054f579182015b8281111561054e578251825591602001919060010190610533565b5b50905061055c9190610560565b5090565b61058291905b8082111561057e576000816000905550600101610566565b5090565b905600a165627a7a723058202f506d7617ee5428762d55dd1629fe6b9f85bbe45295e1449312179df58820f10029",
  "source": "pragma solidity ^0.4.24;\n\n\ncontract AvatarContract {\n\n    struct Habit {\n        string title;\n        string description;\n        uint periodicity;\n        uint totalSessions;\n        uint sessionsCompleted;\n    }\n\n    struct Avatar {\n        string name;\n        uint8 health;\n        uint avatarDna;\n        uint numberOfHabits;\n        uint amountLocked;\n        mapping (uint => Habit) Habits;\n    }\n\n    Avatar[] public avatars;\n    mapping (address => uint) public avatarIdOf;\n\n    function generateUniqueId(address _address) internal pure returns(uint) {\n        return uint(keccak256(abi.encodePacked(_address)))%10**16;\n    }\n\n    function createAvatar(string _name) external {\n        address caller = msg.sender;\n        uint dna = generateUniqueId(caller);\n        avatarIdOf[caller] = avatars.length;\n        avatars.push(Avatar(_name, 100, dna, 0, 0));\n    }\n    \n    \n}",
  "sourcePath": "/Users/johnpmiller/Documents/blockchain/schoolofai/habit-marauders/contracts/AvatarContract.sol",
  "compiler": {
    "name": "solc",
    "version": "0.4.24+commit.e67f0147.Emscripten.clang"
  },
  "schemaVersion": "2.0.1",
  "updatedAt": "2018-07-30T05:48:42.632Z"
}