{
  "contractName": "HabitContract",
  "abi": [
    {
      "constant": false,
      "inputs": [
        {
          "name": "_name",
          "type": "string"
        }
      ],
      "name": "createAvatar",
      "outputs": [],
      "payable": false,
      "stateMutability": "nonpayable",
      "type": "function"
    },
    {
      "constant": true,
      "inputs": [
        {
          "name": "",
          "type": "address"
        }
      ],
      "name": "avatar_id_of",
      "outputs": [
        {
          "name": "",
          "type": "uint256"
        }
      ],
      "payable": false,
      "stateMutability": "view",
      "type": "function"
    },
    {
      "constant": true,
      "inputs": [
        {
          "name": "",
          "type": "uint256"
        }
      ],
      "name": "avatars",
      "outputs": [
        {
          "name": "name",
          "type": "string"
        },
        {
          "name": "health",
          "type": "uint256"
        },
        {
          "name": "avatar_dna",
          "type": "uint256"
        },
        {
          "name": "number_of_habits",
          "type": "uint256"
        },
        {
          "name": "amount_locked",
          "type": "uint256"
        }
      ],
      "payable": false,
      "stateMutability": "view",
      "type": "function"
    },
    {
      "constant": true,
      "inputs": [],
      "name": "getAvatar",
      "outputs": [
        {
          "name": "",
          "type": "string"
        }
      ],
      "payable": false,
      "stateMutability": "view",
      "type": "function"
    },
    {
      "constant": true,
      "inputs": [
        {
          "name": "habitId",
          "type": "uint256"
        }
      ],
      "name": "getHabit",
      "outputs": [
        {
          "name": "",
          "type": "string"
        },
        {
          "name": "",
          "type": "string"
        },
        {
          "name": "",
          "type": "uint256"
        },
        {
          "name": "",
          "type": "uint256"
        },
        {
          "name": "",
          "type": "uint256"
        }
      ],
      "payable": false,
      "stateMutability": "view",
      "type": "function"
    },
    {
      "constant": false,
      "inputs": [
        {
          "name": "habitId",
          "type": "uint256"
        }
      ],
      "name": "deleteHabit",
      "outputs": [],
      "payable": false,
      "stateMutability": "nonpayable",
      "type": "function"
    },
    {
      "constant": true,
      "inputs": [],
      "name": "getNumberOfHabits",
      "outputs": [
        {
          "name": "",
          "type": "uint256"
        }
      ],
      "payable": false,
      "stateMutability": "view",
      "type": "function"
    }
  ],
  "bytecode": "0x608060405234801561001057600080fd5b50610dad806100206000396000f300608060405260043610610083576000357c0100000000000000000000000000000000000000000000000000000000900463ffffffff1680633bfbc0b81461008857806346fd1fd0146101af57806374c0488b146101ea578063834d5fac1461024157806393457a1b14610303578063aa8b20f61461032e578063dae52b0a146103be575b600080fd5b34801561009457600080fd5b506100b3600480360381019080803590602001909291905050506103eb565b604051808060200180602001868152602001858152602001848152602001838103835288818151815260200191508051906020019080838360005b838110156101095780820151818401526020810190506100ee565b50505050905090810190601f1680156101365780820380516001836020036101000a031916815260200191505b50838103825287818151815260200191508051906020019080838360005b8381101561016f578082015181840152602081019050610154565b50505050905090810190601f16801561019c5780820380516001836020036101000a031916815260200191505b5097505050505050505060405180910390f35b3480156101bb57600080fd5b506101e8600480360381019080803590602001908201803590602001919091929391929390505050610634565b005b3480156101f657600080fd5b5061022b600480360381019080803573ffffffffffffffffffffffffffffffffffffffff169060200190929190505050610766565b6040518082815260200191505060405180910390f35b34801561024d57600080fd5b5061026c6004803603810190808035906020019092919050505061077e565b6040518080602001868152602001858152602001848152602001838152602001828103825287818151815260200191508051906020019080838360005b838110156102c45780820151818401526020810190506102a9565b50505050905090810190601f1680156102f15780820380516001836020036101000a031916815260200191505b50965050505050505060405180910390f35b34801561030f57600080fd5b5061031861085b565b6040518082815260200191505060405180910390f35b34801561033a57600080fd5b506103436108c1565b6040518080602001828103825283818151815260200191508051906020019080838360005b83811015610383578082015181840152602081019050610368565b50505050905090810190601f1680156103b05780820380516001836020036101000a031916815260200191505b509250505060405180910390f35b3480156103ca57600080fd5b506103e9600480360381019080803590602001909291905050506109c0565b005b606080600080600080600080600080600080600160003373ffffffffffffffffffffffffffffffffffffffff1673ffffffffffffffffffffffffffffffffffffffff1681526020019081526020016000205481548110151561044957fe5b906000526020600020906006020195508560050160008d815260200190815260200160002060000194508560050160008d815260200190815260200160002060010193508560050160008d81526020019081526020016000206002015492508560050160008d81526020019081526020016000206003015491508560050160008d81526020019081526020016000206004015490508484848484848054600181600116156101000203166002900480601f0160208091040260200160405190810160405280929190818152602001828054600181600116156101000203166002900480156105785780601f1061054d57610100808354040283529160200191610578565b820191906000526020600020905b81548152906001019060200180831161055b57829003601f168201915b50505050509450838054600181600116156101000203166002900480601f0160208091040260200160405190810160405280929190818152602001828054600181600116156101000203166002900480156106145780601f106105e957610100808354040283529160200191610614565b820191906000526020600020905b8154815290600101906020018083116105f757829003601f168201915b505050505093509a509a509a509a509a5050505050505091939590929450565b60008033915061064382610b31565b9050600080549050600160008473ffffffffffffffffffffffffffffffffffffffff1673ffffffffffffffffffffffffffffffffffffffff16815260200190815260200160002081905550600060a06040519081016040528086868080601f016020809104026020016040519081016040528093929190818152602001838380828437820191505050505050815260200160648152602001838152602001600081526020016000815250908060018154018082558091505090600182039060005260206000209060060201600090919290919091506000820151816000019080519060200190610734929190610c0d565b506020820151816001015560408201518160020155606082015181600301556080820151816004015550505050505050565b60016020528060005260406000206000915090505481565b60008181548110151561078d57fe5b9060005260206000209060060201600091509050806000018054600181600116156101000203166002900480601f0160208091040260200160405190810160405280929190818152602001828054600181600116156101000203166002900480156108395780601f1061080e57610100808354040283529160200191610839565b820191906000526020600020905b81548152906001019060200180831161081c57829003601f168201915b5050505050908060010154908060020154908060030154908060040154905085565b600080600160003373ffffffffffffffffffffffffffffffffffffffff1673ffffffffffffffffffffffffffffffffffffffff168152602001908152602001600020548154811015156108aa57fe5b906000526020600020906006020160030154905090565b60606000600160003373ffffffffffffffffffffffffffffffffffffffff1673ffffffffffffffffffffffffffffffffffffffff1681526020019081526020016000205481548110151561091157fe5b90600052602060002090600602016000018054600181600116156101000203166002900480601f0160208091040260200160405190810160405280929190818152602001828054600181600116156101000203166002900480156109b65780601f1061098b576101008083540402835291602001916109b6565b820191906000526020600020905b81548152906001019060200180831161099957829003601f168201915b5050505050905090565b600080600160003373ffffffffffffffffffffffffffffffffffffffff1673ffffffffffffffffffffffffffffffffffffffff16815260200190815260200160002054815481101515610a0f57fe5b906000526020600020906006020190508060050160006001836003015403815260200190815260200160002081600501600084815260200190815260200160002060008201816000019080546001816001161561010002031660029004610a77929190610c8d565b5060018201816001019080546001816001161561010002031660029004610a9f929190610c8d565b506002820154816002015560038201548160030155600482015481600401559050508060050160006001836003015403815260200190815260200160002060008082016000610aee9190610d14565b600182016000610afe9190610d14565b60028201600090556003820160009055600482016000905550508060030160008154809291906001900391905055505050565b6000662386f26fc1000082604051602001808273ffffffffffffffffffffffffffffffffffffffff1673ffffffffffffffffffffffffffffffffffffffff166c010000000000000000000000000281526014019150506040516020818303038152906040526040518082805190602001908083835b602083101515610bcb5780518252602082019150602081019050602083039250610ba6565b6001836020036101000a038019825116818451168082178552505050505050905001915050604051809103902060019004811515610c0557fe5b069050919050565b828054600181600116156101000203166002900490600052602060002090601f016020900481019282601f10610c4e57805160ff1916838001178555610c7c565b82800160010185558215610c7c579182015b82811115610c7b578251825591602001919060010190610c60565b5b509050610c899190610d5c565b5090565b828054600181600116156101000203166002900490600052602060002090601f016020900481019282601f10610cc65780548555610d03565b82800160010185558215610d0357600052602060002091601f016020900482015b82811115610d02578254825591600101919060010190610ce7565b5b509050610d109190610d5c565b5090565b50805460018160011615610100020316600290046000825580601f10610d3a5750610d59565b601f016020900490600052602060002090810190610d589190610d5c565b5b50565b610d7e91905b80821115610d7a576000816000905550600101610d62565b5090565b905600a165627a7a723058202db5975f8c83e5c92f2052ce48b88037fc143759939c194400da0d08062f42ca0029",
  "source": "pragma solidity ^0.4.24;\n\nimport \"./AvatarContract.sol\";\n\ncontract HabitContract is AvatarContract {\n    \n    function addHabit(\n        string _name,\n        string _description,\n        uint _periodicity,\n        uint _totalSessions) internal {\n        Avatar storage avatar = avatars[avatar_id_of[msg.sender]];   \n        avatar.Habits[avatar.number_of_habits] = Habit(_name, _description, _periodicity, _totalSessions, 0);\n        avatar.number_of_habits++;\n        \n    }\n\n    function getHabit( uint habitId) external view returns(string,string,uint,uint,uint) {\n        Avatar storage avatar = avatars[avatar_id_of[msg.sender]];\n        string storage _title = avatar.Habits[habitId].title;\n        string storage _description = avatar.Habits[habitId].description;\n        uint _periodicity = avatar.Habits[habitId].periodicity;\n        uint _totalSessions = avatar.Habits[habitId].totalSessions;\n        uint _sessionsCompleted = avatar.Habits[habitId].sessionsCompleted;\n        return (_title,_description,_periodicity,_totalSessions,_sessionsCompleted);\n    }\n\n    function deleteHabit(uint habitId) public {\n        Avatar storage avatar = avatars[avatar_id_of[msg.sender]];\n        avatar.Habits[habitId] = avatar.Habits[avatar.number_of_habits-1];\n        delete avatar.Habits[avatar.number_of_habits-1];\n        avatar.number_of_habits--;\n\n    }\n\n    function getNumberOfHabits() external view returns(uint) {\n        return avatars[avatar_id_of[msg.sender]].number_of_habits;\n    }\n}",
  "sourcePath": "/Users/miraj/Desktop/habit-marauders/contracts/HabitContract.sol",
  "compiler": {
    "name": "solc",
    "version": "0.4.24+commit.e67f0147.Emscripten.clang"
  },
  "schemaVersion": "2.0.1",
  "updatedAt": "2018-07-29T08:15:11.640Z"
}