{
  "contractName": "HabitContract",
  "abi": [
    {
      "constant": false,
      "inputs": [
        {
          "name": "_name",
          "type": "string"
        }
      ],
      "name": "createAvatar",
      "outputs": [],
      "payable": false,
      "stateMutability": "nonpayable",
      "type": "function"
    },
    {
      "constant": true,
      "inputs": [
        {
          "name": "",
          "type": "address"
        }
      ],
      "name": "avatarIdOf",
      "outputs": [
        {
          "name": "",
          "type": "uint256"
        }
      ],
      "payable": false,
      "stateMutability": "view",
      "type": "function"
    },
    {
      "constant": true,
      "inputs": [
        {
          "name": "",
          "type": "uint256"
        }
      ],
      "name": "avatars",
      "outputs": [
        {
          "name": "name",
          "type": "string"
        },
        {
          "name": "health",
          "type": "uint8"
        },
        {
          "name": "avatarDna",
          "type": "uint256"
        },
        {
          "name": "numberOfHabits",
          "type": "uint256"
        },
        {
          "name": "amountLocked",
          "type": "uint256"
        }
      ],
      "payable": false,
      "stateMutability": "view",
      "type": "function"
    },
    {
      "constant": true,
      "inputs": [
        {
          "name": "habitId",
          "type": "uint256"
        }
      ],
      "name": "getHabit",
      "outputs": [
        {
          "name": "",
          "type": "string"
        },
        {
          "name": "",
          "type": "string"
        },
        {
          "name": "",
          "type": "uint256"
        },
        {
          "name": "",
          "type": "uint256"
        },
        {
          "name": "",
          "type": "uint256"
        }
      ],
      "payable": false,
      "stateMutability": "view",
      "type": "function"
    },
    {
      "constant": false,
      "inputs": [
        {
          "name": "habitId",
          "type": "uint256"
        }
      ],
      "name": "deleteHabit",
      "outputs": [],
      "payable": false,
      "stateMutability": "nonpayable",
      "type": "function"
    },
    {
      "constant": true,
      "inputs": [],
      "name": "getNumberOfHabits",
      "outputs": [
        {
          "name": "",
          "type": "uint256"
        }
      ],
      "payable": false,
      "stateMutability": "view",
      "type": "function"
    }
  ],
  "bytecode": "0x608060405234801561001057600080fd5b50610c40806100206000396000f300608060405260043610610078576000357c0100000000000000000000000000000000000000000000000000000000900463ffffffff1680633bfbc0b81461007d57806346fd1fd0146101a45780637ffdfe2f146101df578063834d5fac1461023657806393457a1b146102fe578063dae52b0a14610329575b600080fd5b34801561008957600080fd5b506100a860048036038101908080359060200190929190505050610356565b604051808060200180602001868152602001858152602001848152602001838103835288818151815260200191508051906020019080838360005b838110156100fe5780820151818401526020810190506100e3565b50505050905090810190601f16801561012b5780820380516001836020036101000a031916815260200191505b50838103825287818151815260200191508051906020019080838360005b83811015610164578082015181840152602081019050610149565b50505050905090810190601f1680156101915780820380516001836020036101000a031916815260200191505b5097505050505050505060405180910390f35b3480156101b057600080fd5b506101dd60048036038101908080359060200190820180359060200191909192939192939050505061059f565b005b3480156101eb57600080fd5b50610220600480360381019080803573ffffffffffffffffffffffffffffffffffffffff1690602001909291905050506106eb565b6040518082815260200191505060405180910390f35b34801561024257600080fd5b5061026160048036038101908080359060200190929190505050610703565b60405180806020018660ff1660ff168152602001858152602001848152602001838152602001828103825287818151815260200191508051906020019080838360005b838110156102bf5780820151818401526020810190506102a4565b50505050905090810190601f1680156102ec5780820380516001836020036101000a031916815260200191505b50965050505050505060405180910390f35b34801561030a57600080fd5b506103136107ed565b6040518082815260200191505060405180910390f35b34801561033557600080fd5b5061035460048036038101908080359060200190929190505050610853565b005b606080600080600080600080600080600080600160003373ffffffffffffffffffffffffffffffffffffffff1673ffffffffffffffffffffffffffffffffffffffff168152602001908152602001600020548154811015156103b457fe5b906000526020600020906006020195508560050160008d815260200190815260200160002060000194508560050160008d815260200190815260200160002060010193508560050160008d81526020019081526020016000206002015492508560050160008d81526020019081526020016000206003015491508560050160008d81526020019081526020016000206004015490508484848484848054600181600116156101000203166002900480601f0160208091040260200160405190810160405280929190818152602001828054600181600116156101000203166002900480156104e35780601f106104b8576101008083540402835291602001916104e3565b820191906000526020600020905b8154815290600101906020018083116104c657829003601f168201915b50505050509450838054600181600116156101000203166002900480601f01602080910402602001604051908101604052809291908181526020018280546001816001161561010002031660029004801561057f5780601f106105545761010080835404028352916020019161057f565b820191906000526020600020905b81548152906001019060200180831161056257829003601f168201915b505050505093509a509a509a509a509a5050505050505091939590929450565b6000803391506105ae826109c4565b9050600080549050600160008473ffffffffffffffffffffffffffffffffffffffff1673ffffffffffffffffffffffffffffffffffffffff16815260200190815260200160002081905550600060a06040519081016040528086868080601f0160208091040260200160405190810160405280939291908181526020018383808284378201915050505050508152602001606460ff1681526020018381526020016000815260200160008152509080600181540180825580915050906001820390600052602060002090600602016000909192909190915060008201518160000190805190602001906106a2929190610aa0565b5060208201518160010160006101000a81548160ff021916908360ff16021790555060408201518160020155606082015181600301556080820151816004015550505050505050565b60016020528060005260406000206000915090505481565b60008181548110151561071257fe5b9060005260206000209060060201600091509050806000018054600181600116156101000203166002900480601f0160208091040260200160405190810160405280929190818152602001828054600181600116156101000203166002900480156107be5780601f10610793576101008083540402835291602001916107be565b820191906000526020600020905b8154815290600101906020018083116107a157829003601f168201915b5050505050908060010160009054906101000a900460ff16908060020154908060030154908060040154905085565b600080600160003373ffffffffffffffffffffffffffffffffffffffff1673ffffffffffffffffffffffffffffffffffffffff1681526020019081526020016000205481548110151561083c57fe5b906000526020600020906006020160030154905090565b600080600160003373ffffffffffffffffffffffffffffffffffffffff1673ffffffffffffffffffffffffffffffffffffffff168152602001908152602001600020548154811015156108a257fe5b90600052602060002090600602019050806005016000600183600301540381526020019081526020016000208160050160008481526020019081526020016000206000820181600001908054600181600116156101000203166002900461090a929190610b20565b5060018201816001019080546001816001161561010002031660029004610932929190610b20565b5060028201548160020155600382015481600301556004820154816004015590505080600501600060018360030154038152602001908152602001600020600080820160006109819190610ba7565b6001820160006109919190610ba7565b60028201600090556003820160009055600482016000905550508060030160008154809291906001900391905055505050565b6000662386f26fc1000082604051602001808273ffffffffffffffffffffffffffffffffffffffff1673ffffffffffffffffffffffffffffffffffffffff166c010000000000000000000000000281526014019150506040516020818303038152906040526040518082805190602001908083835b602083101515610a5e5780518252602082019150602081019050602083039250610a39565b6001836020036101000a038019825116818451168082178552505050505050905001915050604051809103902060019004811515610a9857fe5b069050919050565b828054600181600116156101000203166002900490600052602060002090601f016020900481019282601f10610ae157805160ff1916838001178555610b0f565b82800160010185558215610b0f579182015b82811115610b0e578251825591602001919060010190610af3565b5b509050610b1c9190610bef565b5090565b828054600181600116156101000203166002900490600052602060002090601f016020900481019282601f10610b595780548555610b96565b82800160010185558215610b9657600052602060002091601f016020900482015b82811115610b95578254825591600101919060010190610b7a565b5b509050610ba39190610bef565b5090565b50805460018160011615610100020316600290046000825580601f10610bcd5750610bec565b601f016020900490600052602060002090810190610beb9190610bef565b5b50565b610c1191905b80821115610c0d576000816000905550600101610bf5565b5090565b905600a165627a7a72305820db4a6522b8a71e739a8f6e85bc240c3fb7636a6361808eb3fde3a922480238770029",
  "source": "pragma solidity ^0.4.24;\n\nimport \"./AvatarContract.sol\";\n\ncontract HabitContract is AvatarContract {\n    \n    function addHabit(\n        string _name,\n        string _description,\n        uint _periodicity,\n        uint _totalSessions) internal {\n        Avatar storage avatar = avatars[avatarIdOf[msg.sender]];   \n        avatar.Habits[avatar.numberOfHabits] = Habit(_name, _description, _periodicity, _totalSessions, 0);\n        avatar.numberOfHabits++;\n        \n    }\n\n    function getHabit( uint habitId) external view returns(string, string, uint, uint, uint) {\n        Avatar storage avatar = avatars[avatarIdOf[msg.sender]];\n        string storage _title = avatar.Habits[habitId].title;\n        string storage _description = avatar.Habits[habitId].description;\n        uint _periodicity = avatar.Habits[habitId].periodicity;\n        uint _totalSessions = avatar.Habits[habitId].totalSessions;\n        uint _sessionsCompleted = avatar.Habits[habitId].sessionsCompleted;\n        return (_title, _description, _periodicity, _totalSessions, _sessionsCompleted);\n    }\n\n    function deleteHabit(uint habitId) external {\n        Avatar storage avatar = avatars[avatarIdOf[msg.sender]];\n        avatar.Habits[habitId] = avatar.Habits[avatar.numberOfHabits-1];\n        delete avatar.Habits[avatar.numberOfHabits-1];\n        avatar.numberOfHabits--;\n\n    }\n\n    function getNumberOfHabits() external view returns(uint) {\n        return avatars[avatarIdOf[msg.sender]].numberOfHabits;\n    }\n}",
  "sourcePath": "/Users/johnpmiller/Documents/blockchain/schoolofai/habit-marauders/contracts/HabitContract.sol",
  "compiler": {
    "name": "solc",
    "version": "0.4.24+commit.e67f0147.Emscripten.clang"
  },
  "schemaVersion": "2.0.1",
  "updatedAt": "2018-07-30T05:48:56.783Z"
}