{
  "contractName": "TrackHabit",
  "abi": [
    {
      "constant": true,
      "inputs": [],
      "name": "totalSupply",
      "outputs": [
        {
          "name": "",
          "type": "uint256"
        }
      ],
      "payable": false,
      "stateMutability": "view",
      "type": "function"
    },
    {
      "constant": true,
      "inputs": [
        {
          "name": "habitId",
          "type": "uint256"
        }
      ],
      "name": "getHabit",
      "outputs": [
        {
          "name": "",
          "type": "string"
        },
        {
          "name": "",
          "type": "string"
        },
        {
          "name": "",
          "type": "uint256"
        },
        {
          "name": "",
          "type": "uint256"
        },
        {
          "name": "",
          "type": "uint256"
        }
      ],
      "payable": false,
      "stateMutability": "view",
      "type": "function"
    },
    {
      "constant": false,
      "inputs": [
        {
          "name": "_name",
          "type": "string"
        }
      ],
      "name": "createAvatar",
      "outputs": [],
      "payable": false,
      "stateMutability": "nonpayable",
      "type": "function"
    },
    {
      "constant": true,
      "inputs": [
        {
          "name": "_owner",
          "type": "address"
        }
      ],
      "name": "balanceOf",
      "outputs": [
        {
          "name": "",
          "type": "uint256"
        }
      ],
      "payable": false,
      "stateMutability": "view",
      "type": "function"
    },
    {
      "constant": true,
      "inputs": [
        {
          "name": "",
          "type": "address"
        }
      ],
      "name": "avatar_id_of",
      "outputs": [
        {
          "name": "",
          "type": "uint256"
        }
      ],
      "payable": false,
      "stateMutability": "view",
      "type": "function"
    },
    {
      "constant": true,
      "inputs": [
        {
          "name": "",
          "type": "uint256"
        }
      ],
      "name": "avatars",
      "outputs": [
        {
          "name": "name",
          "type": "string"
        },
        {
          "name": "health",
          "type": "uint256"
        },
        {
          "name": "avatar_dna",
          "type": "uint256"
        },
        {
          "name": "number_of_habits",
          "type": "uint256"
        },
        {
          "name": "amount_locked",
          "type": "uint256"
        }
      ],
      "payable": false,
      "stateMutability": "view",
      "type": "function"
    },
    {
      "constant": true,
      "inputs": [],
      "name": "getNumberOfHabits",
      "outputs": [
        {
          "name": "",
          "type": "uint256"
        }
      ],
      "payable": false,
      "stateMutability": "view",
      "type": "function"
    },
    {
      "constant": false,
      "inputs": [
        {
          "name": "_to",
          "type": "address"
        },
        {
          "name": "_value",
          "type": "uint256"
        }
      ],
      "name": "transfer",
      "outputs": [
        {
          "name": "",
          "type": "bool"
        }
      ],
      "payable": false,
      "stateMutability": "nonpayable",
      "type": "function"
    },
    {
      "constant": true,
      "inputs": [],
      "name": "getAvatar",
      "outputs": [
        {
          "name": "",
          "type": "string"
        }
      ],
      "payable": false,
      "stateMutability": "view",
      "type": "function"
    },
    {
      "constant": false,
      "inputs": [
        {
          "name": "habitId",
          "type": "uint256"
        }
      ],
      "name": "deleteHabit",
      "outputs": [],
      "payable": false,
      "stateMutability": "nonpayable",
      "type": "function"
    },
    {
      "anonymous": false,
      "inputs": [
        {
          "indexed": false,
          "name": "_address",
          "type": "address"
        }
      ],
      "name": "AllHealthConsumed",
      "type": "event"
    },
    {
      "anonymous": false,
      "inputs": [
        {
          "indexed": true,
          "name": "from",
          "type": "address"
        },
        {
          "indexed": true,
          "name": "to",
          "type": "address"
        },
        {
          "indexed": false,
          "name": "value",
          "type": "uint256"
        }
      ],
      "name": "Transfer",
      "type": "event"
    },
    {
      "constant": false,
      "inputs": [
        {
          "name": "_name",
          "type": "string"
        },
        {
          "name": "_description",
          "type": "string"
        },
        {
          "name": "_periodicity",
          "type": "uint256"
        },
        {
          "name": "_totalSessions",
          "type": "uint256"
        }
      ],
      "name": "startHabit",
      "outputs": [],
      "payable": true,
      "stateMutability": "payable",
      "type": "function"
    },
    {
      "constant": false,
      "inputs": [
        {
          "name": "habitId",
          "type": "uint256"
        }
      ],
      "name": "markSessionAsComplete",
      "outputs": [],
      "payable": false,
      "stateMutability": "nonpayable",
      "type": "function"
    }
  ],
  "bytecode": "0x6080604052600060015534801561001557600080fd5b50611833806100256000396000f3006080604052600436106100ba576000357c0100000000000000000000000000000000000000000000000000000000900463ffffffff16806318160ddd146100bf5780633bfbc0b8146100ea57806346fd1fd01461021157806363bea4301461024c57806370a08231146102a657806374c0488b146102fd578063834d5fac1461035457806393457a1b146104165780639bc4656714610441578063a9059cbb1461046e578063aa8b20f6146104d3578063dae52b0a14610563575b600080fd5b3480156100cb57600080fd5b506100d4610590565b6040518082815260200191505060405180910390f35b3480156100f657600080fd5b506101156004803603810190808035906020019092919050505061059a565b604051808060200180602001868152602001858152602001848152602001838103835288818151815260200191508051906020019080838360005b8381101561016b578082015181840152602081019050610150565b50505050905090810190601f1680156101985780820380516001836020036101000a031916815260200191505b50838103825287818151815260200191508051906020019080838360005b838110156101d15780820151818401526020810190506101b6565b50505050905090810190601f1680156101fe5780820380516001836020036101000a031916815260200191505b5097505050505050505060405180910390f35b34801561021d57600080fd5b5061024a6004803603810190808035906020019082018035906020019190919293919293905050506107e4565b005b6102a46004803603810190808035906020019082018035906020019190919293919293908035906020019082018035906020019190919293919293908035906020019092919080359060200190929190505050610916565b005b3480156102b257600080fd5b506102e7600480360381019080803573ffffffffffffffffffffffffffffffffffffffff169060200190929190505050610a99565b6040518082815260200191505060405180910390f35b34801561030957600080fd5b5061033e600480360381019080803573ffffffffffffffffffffffffffffffffffffffff169060200190929190505050610ae1565b6040518082815260200191505060405180910390f35b34801561036057600080fd5b5061037f60048036038101908080359060200190929190505050610af9565b6040518080602001868152602001858152602001848152602001838152602001828103825287818151815260200191508051906020019080838360005b838110156103d75780820151818401526020810190506103bc565b50505050905090810190601f1680156104045780820380516001836020036101000a031916815260200191505b50965050505050505060405180910390f35b34801561042257600080fd5b5061042b610bd6565b6040518082815260200191505060405180910390f35b34801561044d57600080fd5b5061046c60048036038101908080359060200190929190505050610c3d565b005b34801561047a57600080fd5b506104b9600480360381019080803573ffffffffffffffffffffffffffffffffffffffff16906020019092919080359060200190929190505050610f31565b604051808215151515815260200191505060405180910390f35b3480156104df57600080fd5b506104e8611151565b6040518080602001828103825283818151815260200191508051906020019080838360005b8381101561052857808201518184015260208101905061050d565b50505050905090810190601f1680156105555780820380516001836020036101000a031916815260200191505b509250505060405180910390f35b34801561056f57600080fd5b5061058e60048036038101908080359060200190929190505050611250565b005b6000600154905090565b60608060008060008060008060008060006002600360003373ffffffffffffffffffffffffffffffffffffffff1673ffffffffffffffffffffffffffffffffffffffff168152602001908152602001600020548154811015156105f957fe5b906000526020600020906006020195508560050160008d815260200190815260200160002060000194508560050160008d815260200190815260200160002060010193508560050160008d81526020019081526020016000206002015492508560050160008d81526020019081526020016000206003015491508560050160008d81526020019081526020016000206004015490508484848484848054600181600116156101000203166002900480601f0160208091040260200160405190810160405280929190818152602001828054600181600116156101000203166002900480156107285780601f106106fd57610100808354040283529160200191610728565b820191906000526020600020905b81548152906001019060200180831161070b57829003601f168201915b50505050509450838054600181600116156101000203166002900480601f0160208091040260200160405190810160405280929190818152602001828054600181600116156101000203166002900480156107c45780601f10610799576101008083540402835291602001916107c4565b820191906000526020600020905b8154815290600101906020018083116107a757829003601f168201915b505050505093509a509a509a509a509a5050505050505091939590929450565b6000803391506107f3826113c2565b9050600280549050600360008473ffffffffffffffffffffffffffffffffffffffff1673ffffffffffffffffffffffffffffffffffffffff16815260200190815260200160002081905550600260a06040519081016040528086868080601f0160208091040260200160405190810160405280939291908181526020018383808284378201915050505050508152602001606481526020018381526020016000815260200160008152509080600181540180825580915050906001820390600052602060002090600602016000909192909190915060008201518160000190805190602001906108e4929190611693565b506020820151816001015560408201518160020155606082015181600301556080820151816004015550505050505050565b6000341015151561092657600080fd5b34600460003373ffffffffffffffffffffffffffffffffffffffff1673ffffffffffffffffffffffffffffffffffffffff168152602001908152602001600020819055506109da86868080601f01602080910402602001604051908101604052809392919081815260200183838082843782019150505050505085858080601f016020809104026020016040519081016040528093929190818152602001838380828437820191505050505050848461149e565b42600660003373ffffffffffffffffffffffffffffffffffffffff1673ffffffffffffffffffffffffffffffffffffffff168152602001908152602001600020600060016002600360003373ffffffffffffffffffffffffffffffffffffffff1673ffffffffffffffffffffffffffffffffffffffff16815260200190815260200160002054815481101515610a6c57fe5b90600052602060002090600602016003015403815260200190815260200160002081905550505050505050565b60008060008373ffffffffffffffffffffffffffffffffffffffff1673ffffffffffffffffffffffffffffffffffffffff168152602001908152602001600020549050919050565b60036020528060005260406000206000915090505481565b600281815481101515610b0857fe5b9060005260206000209060060201600091509050806000018054600181600116156101000203166002900480601f016020809104026020016040519081016040528092919081815260200182805460018160011615610100020316600290048015610bb45780601f10610b8957610100808354040283529160200191610bb4565b820191906000526020600020905b815481529060010190602001808311610b9757829003601f168201915b5050505050908060010154908060020154908060030154908060040154905085565b60006002600360003373ffffffffffffffffffffffffffffffffffffffff1673ffffffffffffffffffffffffffffffffffffffff16815260200190815260200160002054815481101515610c2657fe5b906000526020600020906006020160030154905090565b6000806000806001600660003373ffffffffffffffffffffffffffffffffffffffff1673ffffffffffffffffffffffffffffffffffffffff1681526020019081526020016000206000878152602001908152602001600020540293506002600360003373ffffffffffffffffffffffffffffffffffffffff1673ffffffffffffffffffffffffffffffffffffffff16815260200190815260200160002054815481101515610ce757fe5b906000526020600020906006020160050160008681526020019081526020016000206002015492508284811515610d1a57fe5b04420391506002600360003373ffffffffffffffffffffffffffffffffffffffff1673ffffffffffffffffffffffffffffffffffffffff16815260200190815260200160002054815481101515610d6d57fe5b906000526020600020906006020190506000821315610e225781600a02816001015403816001018190555060648160010154101515610e21577fd2e02b973c8579d13ab4b166fbccc83fa8c78ffe7b70fe58866d02a8b8f2769233604051808273ffffffffffffffffffffffffffffffffffffffff1673ffffffffffffffffffffffffffffffffffffffff16815260200191505060405180910390a1610e1285611250565b60648160010181905550610f2a565b5b8060050160008681526020019081526020016000206004016000815480929190600101919050555080600501600086815260200190815260200160002060030154816005016000878152602001908152602001600020600401541415610f2957600460003373ffffffffffffffffffffffffffffffffffffffff1673ffffffffffffffffffffffffffffffffffffffff1681526020019081526020016000205460015401600181905550610f1533600460003373ffffffffffffffffffffffffffffffffffffffff1673ffffffffffffffffffffffffffffffffffffffff168152602001908152602001600020546115b6565b60648160010181905550610f2885611250565b5b5b5050505050565b60008060003373ffffffffffffffffffffffffffffffffffffffff1673ffffffffffffffffffffffffffffffffffffffff168152602001908152602001600020548211151515610f8057600080fd5b600073ffffffffffffffffffffffffffffffffffffffff168373ffffffffffffffffffffffffffffffffffffffff1614151515610fbc57600080fd5b61100d826000803373ffffffffffffffffffffffffffffffffffffffff1673ffffffffffffffffffffffffffffffffffffffff1681526020019081526020016000205461165e90919063ffffffff16565b6000803373ffffffffffffffffffffffffffffffffffffffff1673ffffffffffffffffffffffffffffffffffffffff168152602001908152602001600020819055506110a0826000808673ffffffffffffffffffffffffffffffffffffffff1673ffffffffffffffffffffffffffffffffffffffff1681526020019081526020016000205461167790919063ffffffff16565b6000808573ffffffffffffffffffffffffffffffffffffffff1673ffffffffffffffffffffffffffffffffffffffff168152602001908152602001600020819055508273ffffffffffffffffffffffffffffffffffffffff163373ffffffffffffffffffffffffffffffffffffffff167fddf252ad1be2c89b69c2b068fc378daa952ba7f163c4a11628f55a4df523b3ef846040518082815260200191505060405180910390a36001905092915050565b60606002600360003373ffffffffffffffffffffffffffffffffffffffff1673ffffffffffffffffffffffffffffffffffffffff168152602001908152602001600020548154811015156111a157fe5b90600052602060002090600602016000018054600181600116156101000203166002900480601f0160208091040260200160405190810160405280929190818152602001828054600181600116156101000203166002900480156112465780601f1061121b57610100808354040283529160200191611246565b820191906000526020600020905b81548152906001019060200180831161122957829003601f168201915b5050505050905090565b60006002600360003373ffffffffffffffffffffffffffffffffffffffff1673ffffffffffffffffffffffffffffffffffffffff168152602001908152602001600020548154811015156112a057fe5b906000526020600020906006020190508060050160006001836003015403815260200190815260200160002081600501600084815260200190815260200160002060008201816000019080546001816001161561010002031660029004611308929190611713565b5060018201816001019080546001816001161561010002031660029004611330929190611713565b50600282015481600201556003820154816003015560048201548160040155905050806005016000600183600301540381526020019081526020016000206000808201600061137f919061179a565b60018201600061138f919061179a565b60028201600090556003820160009055600482016000905550508060030160008154809291906001900391905055505050565b6000662386f26fc1000082604051602001808273ffffffffffffffffffffffffffffffffffffffff1673ffffffffffffffffffffffffffffffffffffffff166c010000000000000000000000000281526014019150506040516020818303038152906040526040518082805190602001908083835b60208310151561145c5780518252602082019150602081019050602083039250611437565b6001836020036101000a03801982511681845116808217855250505050505090500191505060405180910390206001900481151561149657fe5b069050919050565b60006002600360003373ffffffffffffffffffffffffffffffffffffffff1673ffffffffffffffffffffffffffffffffffffffff168152602001908152602001600020548154811015156114ee57fe5b9060005260206000209060060201905060a060405190810160405280868152602001858152602001848152602001838152602001600081525081600501600083600301548152602001908152602001600020600082015181600001908051906020019061155c929190611693565b506020820151816001019080519060200190611579929190611693565b5060408201518160020155606082015181600301556080820151816004015590505080600301600081548092919060010191905055505050505050565b80600154101515156115c757600080fd5b611618816000808573ffffffffffffffffffffffffffffffffffffffff1673ffffffffffffffffffffffffffffffffffffffff1681526020019081526020016000205461167790919063ffffffff16565b6000808473ffffffffffffffffffffffffffffffffffffffff1673ffffffffffffffffffffffffffffffffffffffff168152602001908152602001600020819055505050565b600082821115151561166c57fe5b818303905092915050565b6000818301905082811015151561168a57fe5b80905092915050565b828054600181600116156101000203166002900490600052602060002090601f016020900481019282601f106116d457805160ff1916838001178555611702565b82800160010185558215611702579182015b828111156117015782518255916020019190600101906116e6565b5b50905061170f91906117e2565b5090565b828054600181600116156101000203166002900490600052602060002090601f016020900481019282601f1061174c5780548555611789565b8280016001018555821561178957600052602060002091601f016020900482015b8281111561178857825482559160010191906001019061176d565b5b50905061179691906117e2565b5090565b50805460018160011615610100020316600290046000825580601f106117c057506117df565b601f0160209004906000526020600020908101906117de91906117e2565b5b50565b61180491905b808211156118005760008160009055506001016117e8565b5090565b905600a165627a7a72305820cf3352e7357636bc18bdfd7f383c08820beda7a385124bad00b2b00ee049bb4b0029",
  "source": "/*\n    Implement Health Points for every Habit instead of Avatar\n*/\n\n\npragma solidity ^0.4.24;\n\nimport \"./HabitContract.sol\";\nimport \"./TokenContract.sol\";\n\ncontract TrackHabit is TokenContract, HabitContract {\n\n    mapping (address => uint) internal fundsLocked;\n    mapping (address => mapping(uint => Habit)) internal habitSessionsCompleted;\n    mapping (address => mapping(uint => uint)) internal sessionTimestamps;\n\n    event AllHealthConsumed(address _address);\n\n    function startHabit(\n        string _name,\n        string _description,\n        uint _periodicity,\n        uint _totalSessions\n    ) external payable {\n        require(msg.value >= 0);\n\n        fundsLocked[msg.sender] = msg.value;\n        addHabit(_name, _description, _periodicity, _totalSessions);\n        sessionTimestamps[msg.sender][avatars[avatar_id_of[msg.sender]].number_of_habits-1] = now;\n    }\n\n    function markSessionAsComplete(uint habitId) external {\n\n        uint timeOfLastSession = sessionTimestamps[msg.sender][habitId]*1 seconds;\n        uint _periodicity = avatars[avatar_id_of[msg.sender]].Habits[habitId].periodicity;\n        int sessionsMissed = int(now - timeOfLastSession/_periodicity);\n        Avatar storage avatar = avatars[avatar_id_of[msg.sender]];\n\n        if(sessionsMissed > 0) {\n            avatar.health = avatar.health - 10*uint(sessionsMissed);\n            if(avatar.health >= 100) {\n                emit AllHealthConsumed(msg.sender);\n                deleteHabit(habitId);\n                avatar.health = 100;\n                return;\n            }\n        }\n\n        avatar.Habits[habitId].sessionsCompleted++;\n\n        if(avatar.Habits[habitId].sessionsCompleted == avatar.Habits[habitId].totalSessions) {\n            totalSupply_ = totalSupply_ + fundsLocked[msg.sender];\n            deposit(msg.sender, fundsLocked[msg.sender]);\n            avatar.health = 100;\n            deleteHabit(habitId);\n        }\n    }\n\n}",
  "sourcePath": "/Users/miraj/Desktop/habit-marauders/contracts/TrackHabit.sol",
  "compiler": {
    "name": "solc",
    "version": "0.4.24+commit.e67f0147.Emscripten.clang"
  },
  "schemaVersion": "2.0.1",
  "updatedAt": "2018-07-29T08:15:11.634Z"
}